:020000040808EA
:100A000038DA0120A10C0808A19209087D1E090806
:100A10001D8909081D6008086F090A080000000008
:100A2000000000000000000000000000C10B0808EA
:100A3000EDC60808000000001D0C080895FE090816
:100A4000BB0C0808BB0C0808BB0C0808BB0C08084A
:100A5000BB0C0808BB0C0808BB0C0808BB0C08083A
:100A6000BB0C0808BB0C0808BB0C0808BB0C08082A
:100A7000BB0C0808BB0C0808BB0C0808BB0C08081A
:100A8000BB0C0808BB0C0808BB0C0808BB0C08080A
:100A9000BB0C0808BB0C0808BB0C0808E7E70808F3
:100AA000BB0C0808BB0C0808BB0C0808BB0C0808EA
:100AB000BB0C08087DFF0908BB0C0808BB0C080824
:100AC000BB0C0808BB0C0808BB0C0808BB0C0808CA
:100AD000BB0C080885080A08BB0C080891080A081E
:100AE000C9E70808BB0C0808BB0C0808BB0C0808C1
:100AF000BB0C0808BB0C0808BB0C0808BB0C08089A
:100B0000BB0C0808BB0C0808BB0C0808BB0C080889
:100B1000BB0C0808BB0C0808BB0C0808BB0C080879
:100B2000BB0C0808BB0C0808BB0C0808BB0C080869
:100B3000BB0C0808BB0C0808BB0C0808BB0C080859
:100B4000BB0C0808BB0C0808BB0C0808BB0C080849
:100B5000BB0C0808BB0C0808BB0C0808BB0C080839
:100B6000BB0C0808BB0C0808BB0C0808BB0C080829
:100B7000BB0C0808BB0C0808BB0C080800000000F0
:100B8000BB0C0808BB0C0808BB0C0808BB0C080809
:100B9000BB0C0808BB0C0808BB0C0808BB0C0808F9
:100BA000BB0C0808BB0C0808BB0C0808DFF80CD00D
:100BB00001F070FA00480047E9420B0838DA0120DA
:100BC0002C4B1968086800F05AB880F30988BFF305
:100BD0006F8F4FF0000080F3118870470000000015
:100BE00008480068006880F308884FF0000080F330
:100BF000148862B661B6BFF34F8FBFF36F8F00DF0B
:100C000000BF00BF08ED00E0DFF80C00016841F410
:100C100070010160704700BF88ED00E0EFF30980CC
:100C2000BFF36F8F134B1A681EF0100F08BF20ED33
:100C3000108A20E9F04F106009B44FF0500080F3A3
:100C40001188BFF34F8FBFF36F8F58F01DF84FF02F
:100C5000000080F3118809BC1968086800F014B816
:100C60001EF0100F08BF00F014B880F30988BFF31E
:100C70006F8F7047B4310020EFF30580704730C8A4
:100C8000B0E8C04FFFF7A1BF30C8B0E8C04FFFF7D2
:100C9000E7BFB0EC088AB0EC08CAFFF7E6BF000077
:100CA0000648804706480047FEE7FEE7FEE7FEE706
:100CB000FEE7FEE7FEE7FEE7FEE7FEE735FF090891
:100CC000AD0B08082DE9F05F0546002092469B46D3
:100CD00088460646814640241BE028464146474652
:100CE000224600F023F853465A46C01A914110D3C9
:100CF00011461846224600F091FF2D1A67EB0108B5
:100D00004F4622460120002100F088FF17EB000922
:100D10004E41201EA4F10104DFDC484631462A463C
:100D2000434600F000B830BCBDE8C09F202A04DB79
:100D3000203A21FA02F00021704721FA02F3D04054
:100D4000C2F120029140084319467047004870479D
:100D500094650E0810B50446FFF7F8FF0068005DC3
:100D600000F0010010BD00000649074A0868504322
:100D700043F2390210440860400870470149086096
:100D800070470000943300206D4EC64138B5D0E95D
:100D90000221491E01EB410102EBC1014268C1EB96
:100DA000011102EB81010268C1EB011102EB81022A
:100DB000D0E9043101EB410103EB81013023A1F5BE
:100DC000527191FBF3F4174D6C4302EBC41291FB8B
:100DD000F3F403FB141100921A2902DB124B1A449C
:100DE00000920C2291FBF2F3104C6343009C04EB45
:100DF000C313009391FBF2F302FB13110C4A08E0BA
:100E0000491E40F2A324535C6343009C04EBC313CC
:100E100000930029F4DC0146684600F027FF0098A3
:100E200038BD00003F0C0F008051010067C2030075
:100E300098650E0870B5054601B90721541A241D9E
:100E4000B4F5B67F09DD286800F036F9A04204DC6D
:100E50002868401C2860012070BD002C05DA286835
:100E6000401E286000F028F90444072094FBF0F0AD
:100E7000401C70BD2DE9F04F89B01D468A46804662
:100E8000002401AF4FF0070B0192079057F8241090
:100E900011F8010B47F8241048B125280DD0BAF1FC
:100EA000010F06D908F8010BAAF1010A5CE0641EE3
:100EB0005AE0002009B000F087B911F8010B47F89B
:100EC00024100028F3D002264FF030095A284BD0C6
:100ED00020DC4D2873D014DC442871D008DC252890
:100EE000DDD041282AD042282ED043283CD130E002
:100EF000462847D0472857D0482862D0492833D1C0
:100F000061E0523808282FD2DFE800F0787AA68313
:100F10008A97A6A86138192826D2DFE800F00D13B9
:100F200018202E253513255C252560642566256D42
:100F3000257375258B9BA0006AA000E070A0A969AD
:100F40000091B4E07DA000E088482969F8E788A016
:100F500007E06969642091FBF0F0133082E0E868F3
:100F600080E0641C47F82400002C8FDA002088F809
:100F700000000799A8EB01009CE7E8684FF0200902
:100F8000009070E07EA0ECE7686900F26C70009061
:100F9000D5E906126846FFF74DFF0099642091FBE2
:100FA000F0F200FB12105DE06869042600F26C703C
:100FB0000090D5E906126846FFF73CFF53E010E0C9
:100FC00048E0A8684EE0A8680C21173090FBF1F2C9
:100FD00001FB120001E0E8690326401C42E0286999
:100FE000FBE768683EE069A0BBE7A8680C2801DA67
:100FF00067A0B6E767A0B4E767A0B2E769A0B0E76B
:1010000028682FE069A0ACE7A869012608BB072083
:1010100028E0D5E90610401AC01D90FBFBF021E046
:10102000686900F26C700090D5E906126846FFF717
:1010300001FF17E00126A86914E0A9695846891D37
:1010400091FBF0F20BFB1211EA69511AC91D91FBD9
:10105000FBF007E056A084E758A082E70426686901
:1010600000F26C70009000218DF8181006A80A217B
:1010700013E0009A92FBF1F301FB1322303200F8E7
:10108000012D009A92FBF1F2009232B901E000F8D2
:10109000019D321EA6F10106F9DC321EA6F1010601
:1010A000E7DC5EE710F8011B0029FBD100994A1E1E
:1010B00000920029F6DC54E781070CD1642190FBF3
:1010C000F1F201FB120151B94FF4C87190FBF1F23A
:1010D00001FB120018B1002000F26D1070470120D2
:1010E000FAE7000053756E004D6F6E005475650091
:1010F0005765640054687500467269005361740056
:1011000053756E646179004D6F6E6461790054753A
:101110006573646179005765646E65736461790015
:10112000546875727364617900467269646179000C
:101130005361747572646179000000004A616E0049
:10114000466562004D617200417072004D61790028
:101150004A756E004A756C004175670053657000F2
:101160004F6374004E6F760044656300A4650E08FB
:101170002561202562202565202554202559000061
:1011800025592D256D2D2564000000000A00000062
:10119000414D0000504D000025493A254D3A255358
:1011A0002025700025483A254D0000000900000068
:1011B000256D2F25642F25790000000025483A254C
:1011C0004D3A25530000000030BCBDE8C08F000040
:1011D00010B5034606A21A210B48FFF74BFE0A483A
:1011E000017A302901D120210172074810BD000089
:1011F00025612025622025642025483A254D3A2581
:10120000532025590A000000ECB9012010B500F068
:1012100027FDBDE81040FFF7DBBF10B5441A0346B9
:10122000944209D28418114403E011F8013D04F8F6
:10123000013D521EF9D210BD40EA0104A40703D0BB
:1012400009E010C9121F10C3042AFAD203E011F8F2
:10125000014B03F8014B521EF9D210BDD2B201E08E
:1012600000F8012B491EFBD270470022F6E710B5AB
:1012700013460A4604461946FFF7F0FF204610BD04
:1012800030B505462A460B4612F8010B13F8014B00
:1012900008B1A042F8D01CB1002802D06D1CF1E7C3
:1012A000284630BD10B5044604E00B7800F8013B39
:1012B00003B1491C521EF8D2204610BDCAB2401ECE
:1012C00010F8011F8A4202D00029F9D1002070478E
:1012D000421C10F8011B0029FBD1801A704710B581
:1012E000002200E0521C835C8C5CA34201D1002BE5
:1012F000F8D1D8B2E1B2401A10BD30B50446002092
:10130000034600E05B1C934203D2E05CCD5C401BD3
:10131000F8D030BD034611F8012B00F8012B002A4C
:10132000F9D11846704730B505460020034600E065
:101330005B1C934205D2EC5CC85C201A01D1002CE6
:10134000F6D130BD70B50F4D00B92868002412E009
:101350000A4602E09E4203D0521C1378002BF9D1BA
:10136000DAB2224305D02BB124B1002100F8011BD1
:1013700004E00446401C0678002EE9D1286020468F
:1013800070BD0000983300200FB400B58DB010A9D7
:1013900009900B9000914FF0FF300A9000200C90C4
:1013A00005480690054807906A4609A80F9900F07D
:1013B000B7FC0DB05DF814FB3D1D08085B1D080867
:1013C0002DE9FF5F1D464FF0FF3BD5E901469146F1
:1013D0005F464FF00008A9697F1C01988847296A79
:1013E000824688470028F6D1BAF1FF3F0CD024F49A
:1013F000C064002E19DD600614D5BAF12B0F09D098
:10140000BAF12D0F0ED103E0584604B000F07EB8BB
:1014100044F48064A9697F1C01988847761E82463F
:10142000002E02DDBAF1300F03D0B9F1000F26D043
:1014300032E0A969761E44F400747F1C0198884745
:101440008246002E05DDBAF1780F06D0BAF1580FAA
:1014500003D0B9F1000F10D01EE0B9F1000F02D097
:10146000B9F1100F18D1A969761E24F400747F1CFD
:10147000019888478246102002E0082000E00A20F8
:10148000814609E008FB0908A969761E44F4007446
:101490007F1C019888478246002E05DD494650464C
:1014A00000F02AFC0028EDDAE96901988847A005D8
:1014B00002D46FF00100A8E7E00725D1600613D53C
:1014C000600502D5C8F1000000E0404629680A1D09
:1014D0002A600968220501D5087015E0220701D5A8
:1014E000088011E008600FE02868011D296000688D
:1014F000210502D580F8008006E0210702D5A0F87A
:10150000008001E0C0F8008038467EE730BCBDE8CE
:10151000C09F2DE9FF5FD2E901A74FF00008916954
:1015200099461446DDF838B0464601988847054686
:1015300059EA0B0005D009E0A169761C019888479B
:101540000546216A284688470028F5D1681C03D043
:101550005FEACA7005D015E04FF0FF3004B000F02C
:1015600048B82068011D2160D0F800800AE05FEAD9
:10157000CA7001D108F8015BA169761C7F1E019831
:1015800088470546002F1ADD681C18D0B9F1000FF6
:101590000DD0E81705EBD060421120F01F0059F87C
:1015A00022102A1A012090400142E0D107E0BBF14D
:1015B000000FDCD1216A284688470028D7D0E1698E
:1015C00001988847BBF1000F07D1002E05DD5FEAC7
:1015D000CA7002D1002188F80010A068B84203DD6B
:1015E000BBF1000F03D017B16FF00100B6E7304632
:1015F000B4E730BCBDE8C09F2DE9F04791460F46E7
:1016000080460446002614F8015B2DB1FFF79EFBCF
:101610000068405DC007F6D12B2D02D02D2D18D0CB
:10162000641E4A463946204600F0A8FB27B13968B7
:10163000A14201D1C7F8008071054FF002040BD51B
:101640004042002803DD20F0CDFA0460A007BDE889
:10165000F08746F48066E4E70028F8DA20F0C2FA62
:1016600004606FF00040F2E72DE9F05F93460F460B
:1016700080460446002620F0B5FAD0F80090824655
:1016800014F8015B2DB1FFF761FB0068405DC007F6
:10169000F6D12B2D02D02D2D1AD0641E0021CAF8B0
:1016A00000105A463946204600F068FB014627B133
:1016B0003868A04201D1C7F80080DAF8000002289B
:1016C00009D0CAF80090700505D5484200F005B869
:1016D00046F48066E2E70846F8E730BCBDE8C09F04
:1016E00000F0ECBB70B5064620F07CFA04680546B5
:1016F0000A2200213046FFF77FFF2C6070BD70B5D5
:10170000064620F06FFA046805460A22002130469A
:10171000FFF772FF2C6070BD2DE9FE4F804681EA15
:101720000300C00F0C46009021F0004123F000455B
:10173000B8EB0200A94105D24046214690461C461E
:101740000B46024623F00040104347D0270DC7F355
:101750000A00C3F30A510290401A019040286BDA44
:10176000C3F3130040F4801B0098924620B100237D
:10177000D2EB030A63EB0B0B01985946C0F1400210
:10178000504600F04BFA06460D4650465946019A1F
:1017900000F053FA10EB08006141002487EA11526F
:1017A00084EAE7731A4340D0009A62B3019A012A8F
:1017B0004FEA075215DC001B61EB02014FF00042BB
:1017C00002EA0752CDE90042001C41F58011324681
:1017D0002B4600F0FAFB03B000F045B84046214626
:1017E000F9E7001B61EB0201001C41F580130018B2
:1017F0005B412018A2F5001747EB030140EAD570C2
:10180000B6196D4111E06D084FEA360645EAC0751C
:101810004FEA0752001B61EB0201001C41F58011E9
:1018200049084FEA30000019514132462B4603B0B7
:1018300000F01CB800F0BABB009801224000002361
:10184000D0EB020263EBE073009821464FEAE074AC
:10185000B8EB000061EB0401E9E783F000435BE7CC
:1018600081F0004158E730BCBDE8C08F30BCBDE816
:10187000C04FFFF7DFBF2DE9FE4F81EA030404F0FC
:10188000004421F0004100944FF0000B23F000438E
:1018900050EA01045ED052EA03045BD0C3F30A5459
:1018A000C1F30A552C44A4F2F3340194A0FB025472
:1018B000C1F3130141F48011C3F3130343F4801304
:1018C00001FB024400FB034E840A970A44EA815458
:1018D00047EA8357A4FB076802958D0A05FB078535
:1018E0004FEA932C04FB0C542705029D4FEA06583F
:1018F00047EA1637B5EB08056EEB070C870E920E1C
:1019000047EA811742EA8312A7FB0201B6EB0B01FB
:1019100064EB00042B0D43EA0C335E1844EB1C50BF
:10192000DA465146E7FB0201C5F313044FEA0B33D5
:1019300043EA14534FEA0432019C43EA0603A4F13C
:101940000C040294009CCDE900B400F03EFB03B00F
:1019500000F003B800200146F9E730BCBDE8C08FB5
:101960002DE9F04D81EA030404F0004B21F000451D
:1019700014464FF0000A23F0004150EA050220D03F
:1019800054EA01021DD0C5F30A570246C5F31303FA
:10199000C1F31300C1F30A5640F4801543F48013D9
:1019A000A7EB0608101BD64608F2FD3873EB0500BE
:1019B00002D308F1010801E092185B41B8F1000F71
:1019C00003DA00200146BDE8F08D00204FF48011BD
:1019D000064684460EE0171B73EB050705D3121B62
:1019E00063EB050306434CEA010C49084FEA30005B
:1019F00092185B4150EA0107EDD152EA030012D080
:101A000082EA040083EA0501084305D0101BAB41BC
:101A100006D20122002306E000224FF0004302E03C
:101A20006FF0010253101AEB06004CEB085110EB5B
:101A30000A0041EB0B01BDE8F04D00F0B7BA0EB55E
:101A4000C10F80EAE0700844CA07002140F2334326
:101A50008DE80E000A460B4600F0B7FA03B000BD51
:101A60000EB540F2334102910021CDE900110A4642
:101A70000B4600F0AAFA03B000BD0EB540F23342A7
:101A800002920022CDE90022134600F09EFA03B034
:101A900000BD70B5C1F30A5201F000450024C1F346
:101AA000130140F2FF3341F480119A4201DA002021
:101AB00070BD40F233439A42A2F2334203DC5242F9
:101AC000FFF734F900E090402C43F1D0404270BD64
:101AD000C1F30A5210B5C1F3130140F2FF3341F4D0
:101AE00080119A4201DA002010BD40F233439A423D
:101AF000A2F2334203DC5242FFF718F910BD9040C6
:101B000010BDC1F30A52C1F3130140F2FF3341F497
:101B100080119A4202DA00200146704740F23343B6
:101B20009A42A2F2334202DC5242FFF7FFB800F0C1
:101B300075B800F0004230F000400AD0C10D01F548
:101B40006071C0F3160042EA0151C2084007114318
:101B5000704700200146704730B5041E71F1000443
:101B600004DB4FF00044404264EB0101141E73F1AA
:101B7000000405DB1C464FF00043524263EB0403B4
:101B80008B4208BF824230BD30B5041E71F10004A3
:101B900004DB4FF00044404264EB0101141E73F17A
:101BA000000405DB1C464FF00043524263EB040384
:101BB000994208BF904230BD01F0004330B421F09B
:101BC000004150EA010206D00A0DA2F56072C1F38D
:101BD0001301002A02DC30BC00207047440F44EAA5
:101BE000C104C100E01830BC00EBC25000F0A7B93E
:101BF00030B50B46014600202022012409E021FADD
:101C000002F59D4205D303FA02F5491B04FA02F5D9
:101C10002844151EA2F10102F1DC30BD202A04DBAC
:101C2000203A00FA02F1002070479140C2F12003EF
:101C300020FA03F3194390407047202A06DBCB17A4
:101C4000203A41FA02F043EAE07306E041FA02F377
:101C5000D040C2F12002914008431946704700006D
:101C6000014900F003B8000008BA012010B500686F
:101C70003C22B0FBF2F302FB1303B0FBF2F00B606B
:101C8000B0FBF2F302FB1303B0FBF2F018224B603F
:101C9000B0FBF2F302FB1303B0FBF2F0021D8B600A
:101CA0000723B2FBF3F403FB1422800040F2B55388
:101CB00000F66C308A61B0FBF3F2B0FBF3F403FB87
:101CC0001400443280084A61C8613B2802D392075D
:101CD00000D0401C0022074C13460A61E25C82429D
:101CE00003D8801A5B1C0B61F8E7401CC8600846EB
:101CF00010BD000008660E083A2800D2303820F0E7
:101D00002002412A01D3A2F13700884201D34FF0CB
:101D1000FF3070470268114413780160184670471D
:101D2000D1600449516104491162002111611146D9
:101D300000F0C2B9151D0808550D0808426842B1E7
:101D4000016811F8013B23B1521EC0E90012184688
:101D500070470121C160881E704742685AB1C3684C
:101D6000016843B983688B4205D0491E521CC0E903
:101D70000012002070474FF0FF3070472DE9F05FF0
:101D800082460078002715468B460AF10104B946C1
:101D9000302801D09DB113E014F8010B01277828F9
:101DA00003D0582801D045B10AE00DB1102D07D15C
:101DB0000027102514F8010B02E0082500E00A2591
:101DC0000026B0460EE005FB080005FB06F10127E2
:101DD00001EB10461FFA80F8B6F5803F00D3B946F4
:101DE00014F8010B2946FFF787FF0028EBDABBF157
:101DF000000F05D00FB1641E00E05446CBF8004040
:101E0000B9F1000F06D01FF0EDFE02210160C81EDF
:101E100000F003B848EA0640FAE730BCBDE8C09FCE
:101E20000FB4002300B589B00CA900910B996FF095
:101E30000042CB601E4B06931E4B07930423CDE953
:101E400001321D4A089202466B46002000F04EFB0C
:101E500009B05DF814FB70B586B006464FF0FF3050
:101E60000091CDE90101002015460C460490324650
:101E7000694604A8FFF7D4FF02460498211825B14B
:101E800008B1084600E020462860049800280DD0DC
:101E9000002A02DD0098884208D0081B0094CDE992
:101EA00001043246694604A8FFF7BAFF06B070BDC8
:101EB0003D1D08085B1D0808550D08082DE9F05F59
:101EC00093460F468046044600261FF08BFED0F84E
:101ED0000090824614F8015B2DB1FEF737FF0068D1
:101EE000405DC007F6D12B2D02D02D2D1FD0641ED2
:101EF0000021CAF800105A463946204600F015FC69
:101F0000024627B13868A04201D1C7F80080DAF84C
:101F1000000002280ED0CAF8009070050AD50020F3
:101F20000346D2EB000063EB010100F005B846F474
:101F30008066DDE71046F8E730BCBDE8C09F0029A9
:101F4000A8BF7047401C490008BF20F0010070473F
:101F500010B4B0FA80FC00FA0CF050EA010404BF9F
:101F600010BC704749B1CCF1200421FA04F411FAF5
:101F70000CF118BF012121430843A3EB0C01CB1D39
:101F80004FEA00614FEA102042BF002010BC7047AA
:101F900000EBC35010440029A4BF10BC7047401C84
:101FA000490008BF20F0010010BC704710B5141E96
:101FB00073F1000408DA401C41F1000192185B4102
:101FC0001A4301D120F0010010BD2DE9F04D9246D9
:101FD0009B4611B1B1FA81F202E0B0FA80F22032F0
:101FE0009046FFF71BFE04460F4640EA0A0041EA0E
:101FF0000B0153465A46084313D0114653EA0100D9
:1020000019D0C8F140025046FEF790FE05460E4634
:10201000504659464246FFF701FE084305D00120CD
:1020200004E020463946BDE8F08D0020054346EA2D
:10203000E0762C4337430A986305E40AA0EB0800D6
:102040000022FD0A44EA47540A3002D50020014626
:10205000E9E7010510196941DDE908450019694101
:10206000BDE8F04DA2E770B521F0004303430CD06A
:10207000C1F30A550024D5EB040564EB0403D6171D
:10208000AD1AB34102DB0020014670BD201841EBC0
:10209000025170BD064C074D06E0E06840F00103B8
:1020A00094E8070098471034AC42F6D3FEF782FD5F
:1020B0003CCF0E086CCF0E082DE9F34F8BB04FF0DC
:1020C000000801F10C000C464FF0010B46460DF1E3
:1020D000080A01906269012101989047051E2DD0E0
:1020E000252D2CD0216A8847C0B162690121019851
:1020F0009047216A88470028F7D1411E62690198FC
:10210000904700E0761CA1690B988847216A8847B0
:102110000028F7D1E1690B988847DBE7A1690B98A4
:1021200088470746A84201D1761CD3E7E1690B989E
:1021300088477F1C02D1B8F1000F6FD046E100271D
:1021400062693D463946019890472A2804D1626960
:102150000121019890470125DFF8849262690121ED
:1021600001989047A0F130010A290AD24F45E5DCD9
:1021700007EB870100EB4107303FDFD445F0100546
:10218000ECE7E90601D46FF000476C280AD04C2830
:1021900014D0682815D06A280DD074281CD07A284D
:1021A0001AD01DE062690121019890476C2802D085
:1021B00045F0040514E045F002050DE045F020056A
:1021C0000AE06269012101989047682802D045F031
:1021D000080505E045F40065626901210198904712
:1021E000C4E9015765283DD019DC58287AD00CDCA9
:1021F000452837D004DC252826D0412831D131E0CC
:1022000046282FD047282CD12CE05B2877D0612896
:1022100028D063287CD0642823D15AE0D0E06F28EE
:1022200048D008DC66281DD067281BD0692821D03B
:102230006E2816D127E0702845D0732868D07528FD
:1022400047D078280DD14DE0A1690B988847054605
:1022500025283FF469AFE1690B9888476D1C3FF46E
:102260006AAFB3E023466A466FF001000B9900F0B5
:102270003DF99EE045F040006060A80723464FF01E
:10228000000236D43EE0E8077FF447AF2068011D26
:1022900021600068290501D506701BE7290701D5D3
:1022A000068017E7A90703D5F117C0E9006111E718
:1022B00006600FE745F040006060A80723464FF036
:1022C000080216D41EE040F60E0125EA0100606007
:1022D00016E045F040006060A80723464FF00A0270
:1022E00007D40FE045F040006060A80708D52346FA
:1022F00010226FF001000B99AFF3008059E007E066
:10230000234610226FF001000B99FFF759F850E0B7
:102310004FF000094F464B46632802D05B2806D099
:1023200040E0E80601D40120A06001273AE062699C
:102330000121019890475E2805D14FF0010962699B
:10234000494601989047216939B900210A46534608
:1023500043F82120491C0829FADBB0B3216969B987
:10236000C11700EBD16253110AEB830122F01F0267
:10237000821A01200B68904003430B6062690121BF
:10238000019890475D28E8D1B9F1000F09D00020ED
:10239000514651F82020D24341F82020401C082803
:1023A000F7DB02AB224600976FF001000B99FFF7B5
:1023B000B0F800280CDA401C08D1BBF1000F05D0A2
:1023C0004FF0FF300DB000F00DB8FFE74046F9E7E1
:1023D000E90701D108F1010806444FF0000B79E646
:1023E000CCCCCC0C30BCBDE8C08F00002DE9FF4F39
:1023F000087881B09946FF2805D0491C2D2804D0C3
:102400000024002308E000230BE00124F9E703EB9C
:10241000830300EB4303491C0878FF28F7D104B17C
:102420005B4200200090147801462D2C01D02B2C0B
:1024300004D1521C2D2C12D00024009400251678B3
:10244000FF2E0ED00A24A0FB04C801FB0481002744
:1024500000FB0711521C16EB0C006941EFE7012449
:10246000EBE7994450EA01020ED00024AA4D26461B
:10247000DFF8A882FFF701FB82468B46B9F1000026
:1024800009DAC9F100071BE001980021C0E9001139
:1024900005B000F047B9074612E0F80707D022461A
:1024A0002B4630464146FFF7E6F906468846224667
:1024B0002B4610461946FFF7DEF904460D467F10FD
:1024C000002FEAD1B9F1000F324643465046594633
:1024D00002DAFFF745FA01E0FFF7CDF9009A0AB1F9
:1024E00081F00041019AC2E90001D1E72DE9FF4FD7
:1024F0001F468DB0D7E901464FF0FF382E204546E4
:102500004FF000090B90B9696D1C0E988847396A25
:10251000824688470028F6D1BAF1FF3F0AD024F45A
:10252000D064002E11DDBAF12B0F08D0BAF12D0FB7
:102530000BD102E0404611B0ABE744F48064B969C6
:102540006D1C0E9888478246761E6946600501D547
:102550002D2000E02B208DF8000001F1010B0DF182
:10256000200809E0B9696D1C0E98884782460F98CB
:1025700044F40074761E0560002E02DDBAF1300FBF
:10258000F0D00B998A453ED144F0800406E00F99C3
:10259000681CA9F1010944F400740860B9696D1C54
:1025A000761E0E98884782463028F0D02BE00B9993
:1025B0008A4505D1200603D444F08004761E18E035
:1025C000504620F0D0FB08B30DF11301761E44F401
:1025D00000748B4508D2AAF130000BF8010B2006DD
:1025E00007D5A9F1010003E0200602D409F101009A
:1025F0008146A00502D50F99681C0860B9696D1C59
:102600000E9888478246002ED1DC53E0002E51DD23
:10261000BAF1650F02D0BAF1450F4BD1A00549D5EB
:10262000B9696D1C24F44074761E0E988847824662
:10263000002E0CDD2B2804D0BAF12D0F07D144F465
:102640008074B9696D1C0E9888478246761EE00535
:1026500001D52D2100E02B2108F8011BCDF82C809D
:1026600021E00DF12901761E44F4007488450CD256
:10267000AAF1300010F0FF0088F8000002D10B9999
:10268000884509D908F1010806E0E00501D524488C
:1026900001E042F20F708146B9696D1C0E988847BF
:1026A00082460F980560002E04DD504620F05BFB4B
:1026B0000028D6D1F9690E988847FF208BF80000D2
:1026C00088F800000020069007904B466A4608A94B
:1026D00006A8FFF78BFEA00502D46FF001002AE7E1
:1026E00014F0240F0AD0E00714D1DDE9061238688F
:1026F000031D3B600068C0E900120BE0DDE9060144
:10270000FFF75AFA0146E00704D13868021D3A6023
:102710000068016028460EE7000024400000F03FFA
:10272000F1D8FFFF30BCBDE8C08F2DE9F74F4FF067
:102730000009009C1546CA4614F8010B302801D048
:10274000ADB115E014F8010B4FF00109782803D062
:10275000582801D04DB10BE00DB1102D08D14FF02C
:102760000009102514F8010B02E0082500E00A25F5
:1027700000273E46B8464FEAE57B16E0A5FB072357
:102780000BFB073105FB080005FB0616030CD718E9
:1027900046F100061FFA80F8381E4FF0010976F561
:1027A000803000D3CA4614F8010B2946FFF7A4FA7B
:1027B0000028E3DA019838B1B9F1000F01D0641EA6
:1027C00000E0009C01980460BAF1000F08D01FF0EF
:1027D00009FA02210160C81E014603B000F006B8E4
:1027E000310441EA174148EA0740F6E730BCBDE84A
:1027F000C08F2DE9F04D00231A461B1A8A4103DBD6
:1028000000200146BDE8F08DC1F30A52C1F3130167
:1028100041F480154FF0000BD10702D100186D4133
:10282000521E0027044640F2FF11384601EB620AAF
:102830003E468046024600204FF48011FEF776FAAD
:10284000C2197141BB1846EB0100B4EB030C75EBE8
:10285000000C04D3E41A65EB000517460E46241954
:1028600008F101006D4180463428E3DDF91946EB9B
:102870000600091BA84103D24FF0FF32134601E0C6
:10288000002213461BEB070046EB0A51BDE8F04D52
:10289000FFF78CBB70B58C1810F8015B15F00703BF
:1028A00001D110F8013B2A1106D110F8012B03E0E9
:1028B00010F8016B01F8016B5B1EF9D12B0705D4F1
:1028C0000023521E0DD401F8013BFAE710F8013B3A
:1028D000CB1A921C03E013F8015B01F8015B521E56
:1028E000F9D5A142D8D3002070BD00002DE9F041F8
:1028F000044600270D46006815F0B0FA0646206829
:1029000015F0A8FA304359D02068C1682C4E8901CF
:1029100005D5617E012902D1217E01290BD0022D2E
:102920001DD0206815F09AFAB8B120688168C1F30B
:10293000400169B111E00125224902E08F422ED207
:102940007F1C0268D2435206F8D440210160E8E7B8
:102950008168314041F010018160012D11D0206863
:1029600015F078FA48B120688168C1F3400121B9B7
:102970008168314041F020018160022D08D0032D93
:1029800004D004250DF090FB064613E00C25F9E772
:102990000825F7E70DF088FB801B05280AD9A06DF4
:1029A00040F01000A065E06D40F00100E0650120FE
:1029B000BDE8F081206880682842EBD10020F7E76D
:1029C000C0FFFF7F000040A370B504460068816827
:1029D0008268C1F3400112F0010F24D019BB816855
:1029E00001F00D01012910D18168104A1140891CA4
:1029F00081602168032008600DF056FB05460EE05B
:102A00000DF052FB401B022809D9A06D40F01000C8
:102A1000A065E06D40F00100E065012070BD206818
:102A20008068C007ECD1002070BD0000C0FFFF7FB0
:102A300070B504460068816811F0010F28D18168E3
:102A4000144A114215D18168D5432940491C81603F
:102A50000DF02AFB064616E0816811F0010F03D144
:102A600081682940491C81600DF01EFB801B0228F3
:102A700009D9A06D40F01000A065E06D40F00100A4
:102A8000E065012070BD20680168C943C907E3D132
:102A9000002070BD3F000080052801D302A07047D0
:102AA000034951F8200070474E554C4C000000007F
:102AB000402E00201FB54E4CDFF838814FF0FF3B11
:102AC000A8F2946A04F10F09651E5A4601A8E96844
:102AD00046F06AFCDDE901101029F6D10128F4D195
:102AE00069460020225CEAB30880BDF9000040F28C
:102AF000E93110FB01F1C0EB40223F48464608EBAC
:102B0000410100EB82000FF0C7FD01283FD072B6F3
:102B1000BDF90000215C491E215462B640F2E93142
:102B200010FB01F106EB410140F2A51210FB02F08F
:102B300056460AEB800000F0B3FE0146BDF90000E6
:102B400021F06CFBBDF9002040F2A51112FB01F150
:102B500006EB8101B1F888360343A1F888360428D2
:102B60001ED000E009E040281ED0022801D0012834
:102B7000ABD1686846F008FDA7E7401C0004000CD4
:102B8000B0D00222142110460BF0C0FD9DE7BDF825
:102B9000000040F2A51110FB01F10AEB810000E0FA
:102BA000084600F019FEE4E759F8221000298CD0FD
:102BB000BDF8001040F2A51011FB00F006EB8000FC
:102BC000D0F88C1600F04BFE070001D0032FD3D1B4
:102BD000BDF9001040F2A51011FB00F006EB8000DB
:102BE00059F82110D0F88C068847032FE0D06CE705
:102BF000413200202C9401209C8501202DE9F041D8
:102C0000174600F108041346064688460A46214640
:102C1000594822F035FA10B33B46424631465648F1
:102C200021F006FC050005D1E068402805D04228C7
:102C30000CD010252846BDE8F0813B4642464E495F
:102C400030462CF0DFFE07E00825F3E73B4642461E
:102C5000494930462CF0EAFE0428F5D1EAE77868C5
:102C6000182853D012DC00F10101192932D2DFE813
:102C700001F07478354674747A7474747A7A3131E8
:102C800031313131316F6F3131314D003C2840D01D
:102C900010DC332863D006DC192837D01B285ED01F
:102CA000312817D135E0342852D0352831D0362894
:102CB00010D12EE0462850D006DC432829D04428E5
:102CC00043D0452806D145E0492848D0502822D095
:102CD000512835D0E168884243D11AE020887E2807
:102CE00003D10021244822F019FA2088652804D055
:102CF000842802D1204822F05AFB01209BE70121C1
:102D00001D4822F00BFA48F2010094E7E16888427E
:102D100025D108208FE7184D0120014685F8FE04D3
:102D2000284621F00BFD2188652901D0802904D196
:102D3000002085F8FE0402207DE701280FD007E07F
:102D400002210D4821F0FAFCF7E720887A28D4D038
:102D5000202070E720887A28CFD004206BE740201D
:102D600069E7102067E73B4642463046BDE8F04140
:102D700001492CF0C7BA0000483700202DE9F04186
:102D80000D46064614460648516821F0A3FB074647
:102D900023462A463046BC46BDE8F041004960471C
:102DA000483700202DE9F05F4E4C4FF000084E4DA3
:102DB000217A0327C3464FF0010A06464FF0020965
:102DC000052976D2DFE801F02D0C2D0367000A2ECD
:102DD0006FD184F808A04FF0010885F800B079E0C1
:102DE00094F87A07012816D140492878095CB14245
:102DF00017D1401C28703D48FEF76AFA2978C0B206
:102E0000884208D1C5F804B085F802B085F803B04F
:102E100084F87A9708E094F87A07022804D0032807
:102E200029D00D2E35D044E00D2E06D0A6F130006D
:102E300009281BD8E87880B13BE02B48A978001D11
:102E400000F04DFFD4F86C1780B2814201D0C4F875
:102E50006C07277284F87A772BE0A878042828D2A8
:102E60002149091D0E54401CA87022E02C2E20D1AF
:102E700085F803A01DE0D4F870070421401CC4F8B5
:102E800070072172D4F86C27904212D184F87A1717
:102E90000DE027720DE0D4F87007401CC4F87007ED
:102EA000D4F86C17884204D1042084F87A0784F897
:102EB000089094F8780768B1012802D0022809D157
:102EC00004E03E2E06D184F8789703E0202E04D04B
:102ED00084F878A7404600F00BB884F878774FF074
:102EE0000108F7E748370020EC29002098C90D08B1
:102EF00030BCBDE8C09F00002DE9F04780460120AE
:102F00000026138837466BBB0C7800230D2C05D1A7
:102F10004C780A2C02D10224148023462D4CB1F89F
:102F2000D05794F8799794F87AA76D1E18E000BFEF
:102F3000D8F80CC0BCF1400F10D1B9F1030F0DD17E
:102F4000BAF1050F0AD05781B4F870079081B4F830
:102F50007007D081052084F87A070CE05B1C9BB2D7
:102F60009D42E5D8148854819481D7812346B1F8D5
:102F7000D047A34202D30020BDE8F08714880B5D40
:102F80000D2B15D0202B04D02C2B0FD03A2B08D191
:102F90000CE0D8F80C301F2B08D0212B06D0242BA6
:102FA00004D09481D3895B1CD38103E0012601E026
:102FB0000126002013885B1C9BB21380B1F8D04718
:102FC000A34201D3002001E0012ED7D11189491C71
:102FD0001181D1E7483700202DE9F84F8B4606468E
:102FE00007880146F64821F05DFF10B1012000F08E
:102FF00079BBF44821F020FE0125642F4BD0822FAD
:1030000049D00024DFF8B883DFF8BC934FF0020A00
:10301000652F4BD0802F43D0662F7DD0672F7CD07B
:10302000682F7BD06E2F7AD06D2F79D0692F78D012
:103030006C2F77D06A2F76D06B2F75D0732F74D00A
:10304000742F73D0702F72D0712F71D06F2F70D0FA
:10305000722F1FD0762F6DD0772F6CD0752F6BD03D
:10306000792F6AD07A2F69D07B2F68D07C2FFCD043
:103070007D2F7DD07E2F7CD0812F7BD07F2F7AD06B
:10308000832F79D0852FE8D0842F76D0862F75D0E6
:10309000872F74D056E2B0780028FBD100957CE0F1
:1030A00098F8A40601220128F4D100E00122B078AA
:1030B00000BB4FF0FF31C9F80010C9F80410C9F87F
:1030C0000810C9F80C10C9F81010C9F81410C9F884
:1030D0001810C9F81C1098F8FE14012902D0802F8E
:1030E00009D00BE088F8FE44B270802F50D1B4486C
:1030F00021F015FD08E0B24821F011FD002247F251
:103100003051304621F062FDB078012840D00228CD
:1031100042D00322032813E07DE082E0DDE00AE1F3
:1031200020E125E136E153E170E197E19FE1A9E17A
:10313000ADE1B3E1C4E1CCE0D0E1D2E104E226E2CA
:1031400031D00423042834D0052838D00627062897
:103150003BD007283DD008283FD0092872D00A2844
:10316000FCD00B28FAD00C28F8D00D283BD007E073
:1031700025E23EE24FE254E259E280E285E29DE23E
:103180000E2835D00F2839D010283CD059D88DE2E0
:103190004FF02C0300940FE000944FF0000300BFA9
:1031A0004FF0040284E088F8FB464FF022030094BD
:1031B000F6E74FF0110300944FF0030278E088F82F
:1031C000FC564FF025030094EAE74FF027030094E4
:1031D000E6E74FF02B03009469E088F809474FF0C9
:1031E00013030094E8E789F8214089F8207003E090
:1031F00089F8214089F82030009409E089F82140BD
:1032000089F820A0F8E789F8214089F82020009566
:103210004FF03103D0E7B078002812D13023009569
:10322000CAE7694FB078083F68B1012816D0022874
:1032300019D0032828D0042837D005283DD00628E7
:1032400048D07FE193E01323032231465C48009489
:1032500021F074FC7C7089F8784027E298F8A10589
:10326000B8B3009465E0787814280AD999F8780002
:1032700018B188F8FF5400944FE0304621F090FCDC
:1032800060E14B2300948BE798F8FF0400286ED18F
:10329000002240F6B831304621F098FCB078801E0C
:1032A000B0707878401C787000E2122300940222FB
:1032B0003146434821F042FCF8E198F80005002827
:1032C00055D14248FEF704F800283CD01223009460
:1032D00072E790E01D230095E9E7B078002832D12D
:1032E000D8F8B4050088102819D008DC012819D0B6
:1032F00002280BD004280CD0082824D10CE0202868
:1033000013D040281FD080281DD111E00B23009539
:1033100046E70C23009543E700950D2340E70E2375
:1033200000953DE72A2300953AE70F23009537E7FC
:1033300000954A2334E7B07830B1012807D002283D
:1033400008D0032857D0FDE01C23009428E74C2325
:10335000009425E73723042231461948009421F0D0
:1033600000FCA3E1B07850BB162300959FE70AE16B
:10337000B07840B1012808D0022814D0032815D015
:10338000042805D0DEE0009417E01423009413E72E
:1033900000950FE0B07830B1012807D0022808D09E
:1033A000032809D0CEE01923009480E71723009466
:1033B0007DE7009418237AE70095142377E739E036
:1033C00048370020403E0020F4290020EB3C00203C
:1033D000B07878BB98F84806414601280CD00228FE
:1033E0000AD0032808D0042806D0052804D00628CF
:1033F00002D0072805D02DE03146B74821F04CFF18
:1034000054E1487C30BB88F811501EE0B07888B990
:1034100098F84806414601280DD002280BD0032811
:1034200009D0042807D0052805D0062803D007288E
:1034300006D00FE038E03146A74821F07AFF35E1A9
:10344000487C012806D188F8114089F822A032234F
:103450000095B1E6304621F0A3FB27E1B07818BB18
:1034600098F812100029F5D188F8125007E0B078CA
:10347000D0B998F812100129ECD188F812401A231B
:10348000009599E6B07878B988F8F95603E0B078F5
:1034900050B988F8F946162300958DE6B07820B12A
:1034A000012806D0022819D04CE089F87940009410
:1034B00015E099F879000128CCD03A2300947BE6F6
:1034C000B07810B1012804D03CE089F82550009470
:1034D00002E089F82540009539236DE600953A23EE
:1034E000E5E6B07830B101280FD002281CD00328BF
:1034F00021D027E089F82440D8F80C0701687648E5
:1035000021F097FE3C23009456E699F8241011B957
:1035100000227249AFE089F82340D8F80C0701680F
:103520006D4821F095FE95E799F824100029F2D115
:1035300089F823405AE0D8F80C070168664821F062
:1035400045FE9AE60124B7E0B07830B101280FD0EB
:103550000228F7D13F23009551E0D8F8581640F2E1
:10356000B4529142EDD888F878573E23009423E670
:1035700098F87807032806D0002242F210713046EE
:1035800021F031FB92E0304621F015FB8EE0B0785F
:1035900088B10128D6D1D8F86C1740460029C2D08E
:1035A000D0F82027914201D9C0F86C2788F879A774
:1035B0000095402300E688F879570094F9E7B07841
:1035C00040B10128BED1D8F80C070168424821F06B
:1035D000FDFD3FE7D8F80C07454601683E4821F05D
:1035E000E9FD012802D0D5F80C07EEE73D23009451
:1035F000E2E5B07858B10128A4D12D230095062228
:103600003146354821F09AFA88F808404EE0002209
:103610004FF47A712FE0B078002893D142230095BF
:10362000CAE5B07800288DD124230095B8E5B0789C
:1036300040B1012809D0022884D199F82810012925
:1036400012D015E047230094B6E54846402100F823
:10365000284F4570446084602148C9F83440FDF724
:1036600004FE48230094A7E5D9F82C000028B0D028
:1036700001224EF66021304621F0A8FA16E0B0781B
:10368000002887D14923009596E5B078002899D184
:103690002E23062231461048009521F04FFAD8F823
:1036A000F0063146826F0C4821F06EFA5A463146D8
:1036B000094821F018F80446204698E4B07800281C
:1036C0009AD198F8020521F016FD0028CFD00124E8
:1036D000304621F065FAEFE748370020F049020054
:1036E0002C2A002018BCBDE8E08F00000A460146E5
:1036F000014821F02DB800004837002070B50E4673
:103700000A4604460146124821F030F80546208852
:1037100065280ED066280FD080280AD083280ED1C5
:103720000C4B40222721304607F04FFC38B10025D2
:1037300005E027F019FD02E0054821F0F0F9064800
:1037400021F08CFA024821F0C2FA284670BD000030
:10375000483700202C2A0020E83C00200A46014679
:10376000014821F066B800004837002010B5044633
:10377000074821F0C1F906484E2101600549416022
:1037800004F27460BDE8104003A11EF0C9B9000046
:1037900048370020A0C90D080D0000000D4A10B5E3
:1037A00092F8784710232CB104887A2C02D0002498
:1037B00082F87847C268212A03D0242A01D01F2A20
:1037C00006D14968022901D0042010BD01210171F0
:1037D000184610BD4837002008304CF0DCB82DE901
:1037E000F04706460024089F1D46904689461C80E7
:1037F00008304CF0BBF83946304620F0AFFD70B9C8
:103800007069401C06D042464946304622F0FEFE12
:10381000288000E02C80F07A18B1012803D004241D
:103820000DE0012400E00224307B012801D144F4A2
:1038300000442A8801234946304627F07FFC204671
:10384000BDE8F08720F098BD70B5044620F0A2FDD9
:10385000054604F108004CF09EF8284670BD20F0A3
:10386000A7BD000070B504460D4608304CF093F833
:10387000204620F057FD28600020A4F87C0684F83C
:103880007E0605A104F27C601EF04AF92046BDE8E0
:10389000704020F09BBD00000D00000020F0A4BD92
:1038A0002DE9FF411F4B884605460FCB8DE80F00E1
:1038B000B8F8D02700234146284627F03FFC6A4647
:1038C0004146284620F03AFD06466A4641462846CB
:1038D00020F0FEFC20F40044C70B4EB1042807D0B2
:1038E0006A464146284620F001FD102800D00446D3
:1038F000012C0FD16946284620F08CFD042802D007
:10390000287B10B102E0042400E0022405F1080045
:103910004CF02CF827B144F4004004B0BDE8F0812D
:103920002046FAE7C0630E0870B5044615460E46F9
:1039300008304CF030F8C4F88456268170BD000081
:103940002DE9F05F1B4F387801282CD00024DFF8D8
:1039500068802546012607F1010907F1100A4FF496
:10396000D06B00BF09F8045040F2A51104FB01F030
:103970004AF8245008F8206008EB80005946C570CA
:1039800005714571A0F88856C0F88C56C0F890565D
:103990000830FDF76AFC641C14F0FF04E2D03E70AE
:1039A000002000F00BB80222012110460AF0AEFE02
:1039B0000120F6E740320020988D012030BCBDE8A0
:1039C000C09F00002DE9F04786B000260746039609
:1039D00092460078FFF762FF4FF0FF39002870D160
:1039E000394D0DF10808044629781AE0641C14F0DA
:1039F000FF0416D0012C1AD0A8F80040BDF9080029
:103A0000411C5ED0397840F2A51210FB02F005F897
:103A1000201005EB800079784170B97801290ED02B
:103A20004FE00129E2D1A8F80040E0BBE6E703221D
:103A3000062102200AF06AFEA8F8004041E08670E4
:103A4000C67006714671012104A8049645F086FDF2
:103A5000BDF8081040F2A51211FB02F105EB81013F
:103A6000C1F89006F8B1494645F0B6FD174ABDF9D0
:103A7000080040F2A51142F820A010FB01F005EB70
:103A8000800003A9FFF7EEFE03991148CDE900017C
:103A9000BDF9080040F2A51110FB01F105EB810111
:103AA0008A78497800E00CE00A4BC0EB402003EB39
:103AB0008000094B0EF08EFDBDF9080006B0BDE890
:103AC000F0874846FAE70000988D01205032002028
:103AD00019510C089C850120F5500C0870B5411C4B
:103AE0001CD0002140F2A51210FB02F30D4A012563
:103AF00002EB8302D17011715171A2F88816C0EBEC
:103B00004021094800EB810004460EF0EDFD30B97C
:103B100020460EF00BFE10B9002500E001252846D6
:103B200070BD0000988D01209C8501202DE9F04199
:103B30000F469046054627491E46401C40F2A512F6
:103B400015FB02F201EB820410D02079012811D07C
:103B500080211846FDF789FB01202071C4F88C668E
:103B6000E07801280AD07E2F25D010E0012502221E
:103B7000152123E00125022211461FE07E2F06D1E8
:103B80001549C5EB452001EB80000EF0CFFD204626
:103B900042463946FFF7C8FE32463946284647F0C6
:103BA000DFFA0500204631460CD0FFF74BFE2046D9
:103BB000FFF712FE08E001250222032102200AF08D
:103BC000A5FD01E0FFF740FE002020712846BDE87A
:103BD000F0810000988D01209C8501202DE9F043A3
:103BE00000240F468046A146022903D998F8010017
:103BF000782807D00025781B80B2082804D9002037
:103C0000BDE8F0830225F6E72E4636E018F80600F8
:103C1000A0F1300109290BD8641CA4B2381B401B49
:103C200081B2102000F0A2F818F8061030391DE01B
:103C3000A0F1610105290BD8641CA4B2381B401BFC
:103C400081B2102000F092F818F8061057390DE0F4
:103C5000413805280DD8641CA4B2381B401B81B222
:103C6000102000F083F818F80610373901FB00998E
:103C700001E06D1CADB2761CB6B2BE42C6D348465A
:103C8000BEE72DE9F04307460020106099469046B4
:103C90001860022902D97878782807D00025481BB7
:103CA00084B2102C04D90020BDE8F0830225F6E789
:103CB000082C09D9A4F1080086B278193146FFF71B
:103CC0008DFFC8F8000000E00026A01B81B2781923
:103CD0003044FFF783FFC9F800000120E4E72DE935
:103CE000F043002507460E46022902D97878782845
:103CF00004D04FF00009C8464C461FE03846FFF795
:103D00006DFF05461CE0385D3038092810D808F1F1
:103D100001001FFA80F8A6EB0801A1EB090081B2AF
:103D20000A2000F023F8395D303901FB005503E02B
:103D300009F101001FFA80F9641CA4B2B442E2D375
:103D40002846BDE8F083000010B5002208E000BF5F
:103D5000A3F16104192C01D8203B8354521C92B268
:103D6000835C002B01D08A42F2D310BD012204E013
:103D7000CB0700D04243490840430029F8D1104600
:103D8000704700002DE9FE431746884604004FF0B7
:103D9000010505D0B8F1000F02D00FB1002615E0E3
:103DA000012657F0ABF904007ED0304617F022FC14
:103DB0004FA14FF48273009593E02069414650F87B
:103DC00026000068FDF78BFA18B1761C6069B042D6
:103DD000F3D86069B0420CD9022657F08FF904007D
:103DE00068D0304617F006FC41A140F21713009549
:103DF00077E08100091D20694BF0AFFAC8B120615E
:103E0000082030F00DFB060020D0414630F00AFBC0
:103E100048B330462CF0B8F9062657F06FF9070082
:103E20003ED0304617F0E6FB31A14FF49A7300956F
:103E300030E0062657F062F904003BD0304617F018
:103E4000D9FB2BA14FF4907300954AE0062657F05A
:103E500055F9070024D0304617F0CCFB24A140F2DE
:103E60002B13009516E03946301D30F0DBFA20B3F5
:103E700030682CF089F930462CF086F9062657F088
:103E80003DF907000CD0304617F0B4FB18A14FF4F1
:103E90009E730095CDE90110194A1A490020B847D0
:103EA000606930B1810000E004E020694BF055FA10
:103EB00060B12061304600F027B8D4E9040140F831
:103EC00021606069401C00266061F3E757F016F935
:103ED0000400EFD0304617F08DFB05A140F25113DE
:103EE0000095CDE90110064A06490020A047E1E708
:103EF00028726573756C74203D20257329000000BD
:103F0000D3020E085CA60E0806BCBDE8F8830000CC
:103F1000F0B585B0054614460F4602A830F082FA87
:103F2000012670B157F0EAF8040007D01EA0CDE9D1
:103F300000604223224A23490020A047012005B007
:103F4000F0BD2A6821463846904704001BD00298ED
:103F5000CDE90304012203A9E8681CF059FF0028F9
:103F6000EDD057F0CBF85FEA000C07D016A0CDE9F2
:103F700000605923124A13490020E0476A6821462D
:103F8000384690470BE057F0B9F8040007D015A069
:103F9000CDE900604C230A4A0A490020A047029854
:103FA0002CF0F2F8CAE70000756E61626C6520744F
:103FB0006F20636C6F6E65206E616D6500000000A0
:103FC00044DD0D08F0750E08756E61626C65207435
:103FD0006F20564543544F525F707573685F62613E
:103FE000636B0000756E61626C6520746F20636C9A
:103FF0006F6E652076616C75650000002DE9F04FED
:104000008DB00C465FEA000A4FF0010613D0FCB1F8
:10401000207864250A214FF0000B4FF022080A286F
:1040200079D022DC0A2832D2DFE800F031FE518A52
:10403000C6FDFCFB31FA022557F060F804006BD096
:104040002846FEF729FDF6A140F20E5300969AE2AB
:10405000022557F053F80400F1D02846FEF71CFD66
:10406000EFA140F214530096F1E710287ED008DC4F
:104070000B287CD00C287BD00D287AD00E2806D1B6
:10408000F7E3222876D023280ED0252873D00225E6
:1040900057F034F80400D2D02846FEF7FDFCE0A12A
:1040A00040F21D530096D2E7E1A1504618F098FB6C
:1040B00000287CD0012557F021F80400BFD0284605
:1040C000FEF7EAFCD6A140F227530096BFE7207A1C
:1040D00070B1012821D0022557F010F80400AED0AD
:1040E0002846FEF7D9FCCEA140F256530096AEE723
:1040F000D1A1504618F074FB0028DAD0012556F003
:10410000FDFF04009BD02846FEF7C6FCC4A140F288
:104110003A5300969BE761E25EE2C9A1504618F06F
:104120005FFB0028C5D0012556F0E8FF040086D0CB
:104130002846FEF7B1FCBAA140F24A53009686E742
:10414000227A002003AB642A05D3B2FBF5F03030AD
:104150008DF80C0001200A2A0FD3B2FBF5F705FBFE
:104160001722B2FBF1F230321A5405E047E371E254
:10417000AAE20AE3F1E3F1E3401C247AB4FBF1F292
:1041800001FB124130311954401C194603F800B0AC
:10419000504618F025FB00288BD0012556F0AEFFC5
:1041A00004008BD02846FEF777FC9DA100E082E258
:1041B00040F2675300964AE7B4F9083001204746B9
:1041C00003AA8DF80C80002B05DA2D208DF80D0048
:1041D00002205B421BB24FF47A7893FBF8FC0CF19F
:1041E000300C02F800C093FBF8FC08FB1C3C9CFB65
:1041F000F5FC401C0CF1300C02F800C093FBF5FC00
:1042000005FB1C3595FBF1F5401C3035155493FB2F
:10421000F1F501FB1533401C303313542D2304E01A
:10422000FDE3FDE3C4E138E0FBE3401C1354A57A51
:10423000401CB5FBF1F530351554A57A401CB5FB93
:10424000F1FC01FB1C5530351554401C1354E37A26
:10425000401CB3FBF1F330331354E37A401CB3FB3F
:10426000F1F401FB143130311154401C1146175444
:10427000401C02F800B0504618F0B2FA00288BD06B
:10428000012556F03BFF04008BD02846FEF704FCC6
:1042900063A140F28C530096D9E694F840000028C0
:1042A00094F834007ED0002852D07725284630F08C
:1042B000B7F807002AD094F8421094F94100CDE9EC
:1042C0000801D4E90E01CDE9060104F108000FC888
:1042D000CDE90310CDE90132A0695BA2401C00903A
:1042E000E3692946384603F26C734EF07BF90028E7
:1042F00019DA012556F002FF040027D02846FEF700
:10430000CBFB47A140F2C4530096CDE3012556F004
:10431000F5FE0400B8D02846FEF7BEFB40A140F2EF
:10432000B453009693E63946504618F059FA0028DF
:1043300074D0012556F0E2FE040007D02846FEF7AF
:10434000ABFB37A140F2C9530096E3E3384631E3B3
:104350006225284630F064F8070029D0D4E902101D
:104360000DF10C0894F8423094F9412088E80F00D0
:10437000D4E905012269491CCDE900100292E369E4
:104380003EA22946384603F26C734EF02BF9002802
:104390001BDA012556F0B2FE0400D7D02846FEF7FE
:1043A0007BFB00E024E01EA140F2FB530096B1E34A
:1043B000012556F0A3FE0400ACD02846FEF76CFBA6
:1043C00017A140F2EC53009641E63946504618F0EA
:1043D00007FA0028ACD0012556F090FE0400B5D0B5
:1043E0002846FEF759FB0EA14FF4C063009691E3F7
:1043F000A8B16025284630F013F807006CD0D4E946
:104400000E01CDE9060104F108000FC8CDE9031043
:10441000CDE90132A069401C009045E0DDE07DE07F
:1044200028726573756C74203D2025732900000087
:104430006E756C6C00000000747275650000000001
:1044400066616C736500000022252E34642D252ED4
:1044500032642D252E326454252E32643A252E32B4
:10446000643A252E32642E252E31326C6C75252B44
:104470002E32643A252E32642200000022252E348A
:10448000642D252E32642D252E326454252E32645F
:104490003A252E32643A252E3264252B2E32643A88
:1044A000252E326422000000E369F9A2294638462D
:1044B00003F26C734EF096F800281BDA012556F0D3
:1044C0001DFE04008BD02846FEF7E6FAAFF2B001DD
:1044D00040F2346300961DE3012556F00FFE040000
:1044E0007AD02846FEF7D8FAAFF2CC0140F2266324
:1044F0000096ACE53946504618F072F900286CD0A9
:10450000012556F0FBFD0400DCD02846FEF7C4FA76
:10451000AFF2F40140F239630096FBE24B252846E6
:104520002FF07EFF070021D004F108000FC8CDE96D
:104530000310CDE90132A069E0A2401C0090E369BC
:104540002946384603F26C734EF04CF800281BDA0B
:10455000012556F0D3FD0400B4D02846FEF79CFA9E
:10456000AFF2441140F267630096D3E2012556F0A2
:10457000C5FD0400B4D02846FEF78EFAAFF26011F4
:1045800040F25A6300962EE23946504618F028F958
:104590000028B4D0012556F0B1FD040092D0284681
:1045A000FEF77AFAAFF2881140F26C630096B1E23E
:1045B0005046A16818F058F900287CD0012556F023
:1045C0009DFD04008CD02846FEF766FAAFF2B011CC
:1045D00040F27E63009606E24AE1A2E20020B4F9CE
:1045E000082042F21073074603AD002A06DA2D2098
:1045F0008DF80C000120524292B202E0228900E0C4
:104600000FB99A4205D3B2FBF3F430342C5401278E
:10461000401CB2FBF3F403FB1422B3FBF1F30A2BAF
:10462000EED230322A54401C294605F800B05046DC
:1046300018F0D6F80028C0D0012556F05FFD040020
:1046400098D02846FEF728FAAFF22C2140F2A96351
:104650000096C8E10022A068A14B174603AD0028D0
:1046600007DA2D208DF80C00A0680122404200E0FE
:104670000FB9984205D3B0FBF3F43034AC540127A2
:10468000521CB0FBF3F403FB1400B3FBF1F30A2B51
:10469000EED23030A854521C294605F802B05046DC
:1046A00018F09EF8002888D0012556F027FD040058
:1046B00088D0284600E0F8E1FEF7EEF9AFF2A0213D
:1046C00040F2D46300968EE14FF00009CDF80090DF
:1046D000D4E90280834D844F00280BDA2D208DF819
:1046E0000C00D4E902120020D1F100084FF00109BA
:1046F00060EB0200044627E0009838B92A463B46A2
:1047000040462146FCF7DEFA08430DD02A463B46D8
:1047100040462146FCF7D6FA03A9303001F80900DB
:10472000012009F1010900902A463B4640462146F6
:10473000FCF7C8FA90461C460A2200232846394650
:10474000FCF7C0FA05460F460A20281A77F1000048
:10475000D2D203A908F1300809F1010001F809805B
:1047600001F800B0504618F03BF800289BD0012516
:1047700056F0C4FC04007BD02846FEF78DF9AFF25A
:10478000603140F2FE630096D9E394F908200020DE
:1047900003AB002A04DA2D208DF80C0001205242D0
:1047A000642A04DB92FBF5F430341C54401C0A2AC2
:1047B00008DB92FBF5F405FB142494FBF1F4303490
:1047C0001C54401C92FBF1F401FB142130311954AC
:1047D000401C194603F800B0504618F001F80028B4
:1047E000C4D0012556F08AFC040041D02846FEF7CB
:1047F00053F9AFF2D43140F21C7300969FE30023CB
:10480000D4E902571A4618460EE0395C80290DD2C9
:104810001F2901D85B1C06E0222903D05C2901D0A6
:104820002F2900D1521C401CA842EED3A8420DD221
:10483000022556F063FC04001AD02846FEF72CF936
:10484000AFF2244140F24673009678E303EB830015
:10485000284400EB020909F104002FF0E1FD0400F7
:1048600008D001210020434684F800805C227FE0CC
:1048700075E0B9E0012556F041FC04006FD02846F0
:10488000FEF70AF9AFF268414FF4EA63009656E387
:1048900022252E34642D252E32642D252E3264548B
:1048A000252E32643A252E32643A252E32642E2586
:1048B0002E31326C6C755A220000000022252E34F5
:1048C000642D252E32642D252E326454252E32641B
:1048D0003A252E32643A252E32645A220000000016
:1048E00000CA9A3B0000E8890423C78A17F800C071
:1048F000BCF11F0F1FD86254491C4FF0750C04F80F
:1049000001C0491C4FF0300C04F801C0491CDFF80D
:10491000888404F801C017F800C0491C08EB1C1C6F
:104920009CF800C004F801C017F800C00CF00F0C90
:1049300018F80CC017E0BCF1220F06D0BCF15C0FD8
:1049400007D0BCF12F0F0BD00EE06254491C63540A
:104950000CE06254491C625408E08FE130E02BE027
:1049600062544FF02F0C491C04F801C0491C401C34
:10497000A842BBD3635409EB0401504681F802B04E
:10498000214617F02DFF98B1012556F0B7FB07001F
:104990000FD02846FEF780F8AFF27C510096CDE9A3
:1049A00001104FF4F063FD4AFD490020B84700E0D4
:1049B000002520462BF0E8FB0DB0284600F084BB14
:1049C0005046E16817F00CFF00286ED0012556F024
:1049D00095FB0400F0D02846FEF75EF8AFF2C05118
:1049E00040F296730096AAE2A06820F00041C1F15F
:1049F000FF41002916D5EBA1504617F0F1FE002823
:104A0000E3D0012556F07AFB0400D5D02846FEF706
:104A100043F8AFF2F45140F2AD7300968FE281E1BA
:104A200081E095E21DF0D4F8B0B1A068C00F13D0BA
:104A3000DDA1504617F0D4FE0028C6D0012556F05F
:104A40005DFB0400B8D02846FEF726F8AFF23061CF
:104A500040F2B973009672E2A0681DF0B9F810B187
:104A6000A068C00F22D0242528462FF0D9FC0700CB
:104A700030D0A068FDF75DF8CDE900010623CCA297
:104A8000294638464DF0AEFD002831DA012556F0B2
:104A900035FB04003FF45AAC2846FDF7FDFFAFF2AA
:104AA000806140F2DA73009634E04FE2C2A15046D2
:104AB00017F096FE002888D0012556F01FFB040051
:104AC00088D02846FDF7E8FFAFF2AC6140F2C5732D
:104AD000009634E2012556F011FB040095D02846DB
:104AE000FDF7DAFFAFF2C86140F2D373009626E219
:104AF0003946504617F074FE98B1012556F0FEFA7B
:104B00000400C7D02846FDF7C7FFAFF2EC6140F2C2
:104B1000DF730096CDE90110A04AA1490020A0470B
:104B200014E4002512E494ED020B10EE900A10EE4E
:104B3000101A8DED000B01B10121084320F0004156
:104B40009E48401AC00F13D096A1504617F048FE59
:104B50000028B0D0012556F0D1FA0400B0D0284684
:104B6000FDF79AFFAFF248714FF4FF630096E6E15C
:104B700051EC100B1DF01EF8D8B194ED020B10EEA5
:104B8000900A8DED000BC00F13D087A1504617F08F
:104B900027FE00288FD0012556F0B0FA04008FD0F0
:104BA0002846FDF779FFAFF2887140F605030096BD
:104BB000C5E194ED020B51EC100B1CF0FBFF38B17A
:104BC00094ED020B10EE900A8DED000BC00F1ED07D
:104BD000222528462FF024FC07002CD094ED020B50
:104BE0000F238DED000B72A229464DF0FBFC00282F
:104BF0002FDA012556F082FA040091D02846FDF7FD
:104C00004BFFAFF2E47140F62803009682E76AA1F9
:104C1000504617F0E5FD00289BD0012556F06EFAAE
:104C200004009BD02846FDF737FFAFF60C0140F695
:104C30001203009683E1012556F060FA04008DD03E
:104C40002846FDF729FFAFF6280140F6210300961C
:104C500075E13946504617F0C3FD00283FF461AFB7
:104C6000012556F04BFA0400C7D02846FDF714FF83
:104C7000AFF6540140F62D0300964BE7002550494E
:104C8000504814F0D5F85FEA000803D000274FF031
:104C9000040926E0012556F031FA0400C1D0284667
:104CA000FDF7FAFEAFF6880140F64703009646E1AD
:104CB000E06809EBC701425850F83710404613F03E
:104CC000A3FF68B1012556F019FA040026D0284642
:104CD000FDF7E2FEAFF6B80140F65203009617E08A
:104CE0007F1CA068B842E3D8AFF6EF425146404679
:104CF00012F0E4FE90B1012556F000FA04000DD048
:104D00002846FDF7C9FEAFF6E80140F661030096BC
:104D1000CDE90110214A22490020A047404614F065
:104D2000E9F849E68DF80C80207A474600092BF017
:104D3000C9FF8DF80D00207A00F00F002BF0C2FFA4
:104D40008DF80E00607A00092BF0BCFF8DF80F0083
:104D5000607A00F00F002BF0B5FF8DF81000A07AFC
:104D600000092BF0AFFF8DF81100A07A00F00F00C2
:104D70002BF0A8FF8DF81200E07A00092BF0A2FFBB
:104D80008DF81300E07A00F00F002BF09BFF8DF8F8
:104D900014002D2518E000002CF80D084BFA0D0822
:104DA00080930E084E614E002D494E4600000000D3
:104DB000252E2A6600000000494E46000000F07FC4
:104DC000D5920908C99209088DF81550207B000971
:104DD0002BF078FF8DF81600207B00F00F002BF0F1
:104DE00071FF8DF81700607B00092BF06BFF8DF8C9
:104DF0001800607B00F00F002BF064FF8DF81900A5
:104E00008DF81A50A07B00092BF05CFF8DF81B0079
:104E1000A07B00F00F002BF055FF8DF81C00E07B0D
:104E200000092BF04FFF8DF81D00E07B00F00F0014
:104E30002BF048FF8DF81E008DF81F50207C0009D4
:104E40002BF040FF8DF82000207C00F00F002BF0AD
:104E500039FF8DF82100607C00092BF033FF8DF8BD
:104E60002200607C00F00F002BF02CFF8DF8230057
:104E70008DF82450A07C00092BF024FF8DF825002C
:104E8000A07C00F00F002BF01DFF8DF82600E07CC9
:104E900000092BF017FF8DF82700E07C00F00F00D1
:104EA0002BF010FF8DF82800207D00092BF00AFF61
:104EB0008DF82900207D00F00F002BF003FF8DF806
:104EC0002A00607D00092BF0FDFE8DF82B00607D2F
:104ED00000F00F002BF0F6FE8DF82C00A07D0009ED
:104EE0002BF0F0FE8DF82D00A07D00F00F002BF0D0
:104EF000E9FE8DF82E00E07D00092BF0E3FE8DF831
:104F00002F00E07D00F00F002BF0DCFE8DF830006C
:104F10008DF831708DF832B003A9504617F060FC5F
:104F2000A0B1012556F0EAF804003FF4FAAE284695
:104F3000FDF7B2FDAFF6183140F6A2030096CDE9B9
:104F400001105F4A5F490020A04735E5002533E5A1
:104F5000A068002528B10321401EB0FBF1F08000BD
:104F6000001DC01C2FF05CFA070004D0222038700E
:104F70004FF0010839E001251EE5E068405D80083A
:104F800020F0CFFB0290E16805F10109485D800740
:104F9000820E11F8090042EA101020F0C2FB0190C5
:104FA000E16811F8090005F102090007820E11F805
:104FB000090042EA901020F0B4FB0090E16811F87B
:104FC000090000F03F0020F0ACFB0146029807F812
:104FD000080008F10100019A3A54401C009A3A5422
:104FE000401C08F104083954ED1CA068401B03283C
:104FF000C3D2A0684FF03D09401B022802D001280F
:1050000025D03FE0E068405D800820F08AFB0190F9
:10501000E068415D6D1C8907405D890E41EA101012
:1050200020F07FFB0090E068405D00F00F0020F072
:1050300049FB0146019807F8080008F10100009AB1
:105040003A54401C3954401C07F8009018E0E068BE
:10505000405D800820F065FB0090E068405D00F056
:10506000030020F041FB0146009807F8080008F112
:1050700001003954401C07F80090401C07F80090CC
:1050800000F10108222007F8080008F10100394664
:1050900007F800B0504617F0A3FB00283FF441ADDD
:1050A000012556F02BF804003FF43AAD2846FDF7F1
:1050B000F3FCAFF6944140F6FA0300962AE50000AF
:1050C0004BFA0D0880930E0830BCBDE8C08F00007D
:1050D000FEB504004FF0010611D0FCF7F9F8800787
:1050E0001BD056F00BF8040007D02DA0CDE90060CE
:1050F000C923334A33490020A04700254DE055F02D
:10510000FDFF0500F9D030A00096CDE90104C123D0
:105110002B4A2C490020A847EFE700F0D5FB0500FB
:105120000DD02046FCF7D4F8002836D08108204462
:1051300001EB410110F8012C3D2A0DD012E055F091
:10514000DDFF040029D02AA0CDE90060D1231C4A4C
:105150001C490020A04720E010F8020C3D2800D197
:10516000491E491EC9B1284600F0B8FB78B155F078
:10517000C5FF040007D028A0CDE90060DC23104A59
:1051800010490020A047284600F016FBB5E7284646
:1051900000F087FC214600F090FE2846FEBD00008E
:1051A000496E76616C6964206C656E677468204234
:1051B000617365363420737472696E672100000074
:1051C000B4D80D080C720E08696E76616C696420A3
:1051D000706172616D6574657220636F6E737420A7
:1051E000636861722A20736F757263653D25700074
:1051F000436F756C64206E6F7420637265617465B3
:1052000020612062756666657220746F2064656334
:105210006F64696E672E0000436F756C64206E6F5B
:1052200074207072656275696C64206120627566B5
:1052300066657220666F7220626173652036342065
:105240006465636F64696E672E0000007FB50400BB
:105250004FF0010604D003A900F02AFA70B908E063
:10526000002455F04BFF05001CD010A04FF4AF7385
:105270000CE002A9204600F00BFC70B1002455F0B0
:105280003DFF05000ED010A04FF4B473CDE90060CF
:10529000184A19490020A84704E0DDE9021000F08F
:1052A00023FD044604B0204670BD000042617365D2
:1052B00036345F456E636F64653A3A204E554C4C08
:1052C00020696E70757400004261736536345F4505
:1052D0006E636F64653A3A204255464645525F72A6
:1052E0006F7574696E6573206661696C7572652E81
:1052F00000000000DFD80D080C720E08002804D052
:1053000009B100F0F1BC17F051BD704770B586B01F
:105310000D46040018D12448C16C41F00101C1645C
:10532000C16C01F001010591C16C41F00801C1643B
:10533000C16C01F008010591816D41F40031816576
:10534000806D00F40030059018480226694630F858
:105350001400CDE900060020CDE902061348001D27
:1053600030F814000490124850F824000AF0B0FD00
:105370000E486946801C30F81400CDE900060B4841
:10538000801D30F8140004900948001D50F82400D6
:105390000AF09EFD0648001F50F8240028602846A9
:1053A0000CF020FB06B070BD0010024040D80D0884
:1053B000742A0020FEE700000A46054910B50140A6
:1053C00004480068036984209847002010BD00004D
:1053D000FF010300982A002070B5124C01252068B7
:1053E00010B10325284670BD0F48416984208847C5
:1053F0000A200AF08FFB0D4E842071688847C0B2E6
:105400007B2801D07928EDD1266031680029E9D0C8
:105410008420884720680649C26884209047002578
:10542000E0E70000982A0020C82A00209C2A0020DB
:10543000FF01030010B5094900EA010408482146AC
:10544000006882698420904728B100212046BDE889
:10545000104000F007B80121F8E70000FF01030049
:10546000982A00200A46034901400348006843691E
:1054700084201847FF010300982A00202DE9F04FEF
:10548000002487B007462C4D2646DFF8B0A04FF029
:105490000208DFF8AC9009E044B1032C0ED0012CD7
:1054A0000CD0022C12D0042C18D107E0E86C40F08C
:1054B0000400E864E86C00F004000EE0E86C40F4DE
:1054C0008070E864E86C00F4807006E0E86C40F0FE
:1054D0002000E864E86C00F02000059039F8140022
:1054E000CDE90286009017B1012F07D01BE001968D
:1054F0005AF8240069460AF0EBFC14E011480190C8
:105500005AF8240069460AF0E3FCDFF834B00022C0
:10551000ABF1060B0F211BF904000BF0ABF81BF9E4
:1055200004000BF09BF8641CE4B2052CB4D307B064
:10553000002000F009B8000000100240842A00207A
:1055400052D80D080000211030BCBDE8C08F00000B
:1055500030B51A4C87B0054601280FD0FFF73CFF45
:10556000012828D034F815000121FFF725FF34F871
:1055700015000121FFF776FF07B030BD1048C16C60
:1055800041F00201C164C06C694600F00200059060
:105590006088009001200190002002900320094CB7
:1055A000039020460AF094FC0098012281B2204624
:1055B0000AF074FDE0E7FFF7FDFE000048D80D0893
:1055C00000100240000400480649012804D031F8C8
:1055D00010000121FFF746BF4988012202480AF066
:1055E0005DBD000048D80D080004004806490128A8
:1055F00004D031F810000021FFF734BF49880022A1
:1056000002480AF04BBD000048D80D0800040048CD
:105610000549012803D031F81000FFF70BBF498876
:1056200002480AF034BD000048D80D0800040048C4
:105630007CB500281BD0044608202EF0F1FE0500A2
:1056400014D0616800F0F8F990B128462AF09CFD6A
:1056500055F054FD040009D00AA10120CDE9000154
:1056600040F28E23104A11490020A04700207CBD43
:10567000D4E900122868FBF7D0FD6068686028460E
:105680007CBD00004661696C7572653A20616C6C86
:105690006F636174696E672074656D7020627566F2
:1056A0006665722E000000003FDA0D08B8720E0821
:1056B00020B119B1006808600020704740F22F1037
:1056C00070470000FEB50F4605004FF0010619D0E7
:1056D00008202EF0A5FE040023D0394600F0ACF9D6
:1056E00000282BD055F00AFD050007D017A0CDE902
:1056F000006050231D4A1E490020A84720462AF07A
:1057000043FD0CE055F0FAFC040008D019A0009607
:10571000CDE901053E23154A15490020A047002484
:1057200011E055F0EBFC05000DD01AA0CDE90060AA
:1057300049230E4A0E490020A84704E03A4629466C
:105740002068FBF76AFD2046FEBD0000756E6162B1
:105750006C6520746F204255464645525F73616602
:10576000656D616C6C6F63200000000092D90D08BC
:10577000B8720E08696E76616C696420706172613E
:105780006D6574657220736F757263653A2025705C
:10579000000000004661696C75726520616C6C6F79
:1057A000636174696E6720425546464552207374A2
:1057B000727563747572650010B5002809D00446CF
:1057C000006808B12AF0E0FC2046BDE810402AF04D
:1057D000DBBC10BD7CB50D46012668B1E5B10446C1
:1057E00040684119206849F0B8FD28B3206060681E
:1057F0002844606000207CBD55F080FC040008D087
:1058000015A0CDE9006040F25F131A4A1A49002042
:10581000A0474FF4B0707CBD55F070FC040008D078
:1058200016A0CDE9006040F26513124A124900202B
:10583000A0474FF4B3707CBD55F060FC040008D065
:1058400016A0CDE9006040F26F130A4A0A49002011
:10585000A0474FF4B8707CBD4661696C7572653ABB
:105860002068616E646C6520697320696E76616C76
:1058700069642E00F9D90D08B8720E084661696C8A
:105880007572653A20656E6C6172676553697A65F9
:105890002073697A6520697320302E004661696C37
:1058A0007572653A20616C6C6F636174696E672014
:1058B00074656D70206275666665722E000000006A
:1058C000002800D04068704710B508202EF0A8FDD1
:1058D000002802D000210160416010BD7CB50D465A
:1058E000A0B1B5B1044600680126A8B155F006FC88
:1058F000040008D014A0CDE9006040F21313194A47
:1059000019490020A0474FF48A707CBD4FF4837082
:105910007CBD40F20B107CBD08462EF081FD20605E
:1059200010B1002065607CBD55F0E8FB040008D094
:105930000EA0CDE9006040F21B130A4A0A4900207C
:10594000A0474FF48E707CBD4661696C757265200E
:105950006275666665722064617461206973204EA9
:10596000554C4C00D9D90D08B8720E084661696CC7
:1059700075726520616C6C6F636174696E6720621B
:1059800075666665720000007CB510B109B1884289
:1059900002D140F20F207CBD044600680D46F0B1F4
:1059A0002868F8B168680028F5D0616808442EF0CE
:1059B00037FD060019D0D5E90012FBF72EFCD4E91B
:1059C000001268683044FBF728FC20682AF0DCFBF2
:1059D0002660606869680844606000207CBD4FF400
:1059E00006707CBD40F21D207CBD55F087FB040095
:1059F00009D006A10120CDE9000140F22E230C4A76
:105A00000C490020A04740F22F207CBD4661696C04
:105A10007572653A20616C6C6F636174696E6720A2
:105A200074656D70206275666665722E00000000F8
:105A300024DA0D08B8720E087CB505460C4608003D
:105A400000D101202EF0ECFC286010B100206C6029
:105A50007CBD55F053FB040008D005A10120CDE921
:105A600000012C23084A09490020A0472D207CBDB5
:105A70004661696C75726520616C6C6F63617469F5
:105A80006E6720646174610080D90D08B8720E08D9
:105A900020B119B1406808600020704740F2C7107B
:105AA000704718B1416809B100687047002070471D
:105AB0007CB5012628B169B11FF056FD040019D04C
:105AC00025E0002455F01AFB050020D011A040F27B
:105AD000431316E001202EF0A3FC040002D00020A6
:105AE000207014E055F00AFB050010D013A04FF40D
:105AF000A77306E055F002FB050008D019A04FF48B
:105B0000AC73CDE90060204A20490020A847204618
:105B10007CBD00004661696C7572653A20496E76FD
:105B2000616C696420696E70757420706172616D5A
:105B30006574657220736F7572636500756E61625E
:105B40006C6520746F20616C6C6F63617465206D8F
:105B5000656D6F727920666F7220726573756C74F3
:105B600000000000656E636F64696E67206F6620D9
:105B7000756E7369676E6564206368617220666123
:105B8000696C65642E0000005ED90D0864720E0811
:105B90002DE9FF5F89464FF000069846154607003D
:105BA00034464FF0FF3114D09DB15FEA090005D0B3
:105BB000401E0322B0FBF2F08000001D00F1010A3C
:105BC000B8F1000F37D0D8F80020524533D2C8F8CA
:105BD00000A0084604B000F083B8B85D80081FF04C
:105BE000B5FD0290B85D07EB060B8007810E9BF8B0
:105BF000010041EA10101FF0A9FD01909BF801007F
:105C00000007810E9BF8020041EA90101FF09EFDF4
:105C100000909BF8020000F03F001FF097FD0299F2
:105C20002955641C01992955641C00992955641C47
:105C30002855641CF61CA9EB06000328CDD2A9EB5D
:105C400006004FF03D09022802D0012827D039E094
:105C5000B85D80081FF07AFD8346B85D3E4480073A
:105C60007178800E40EA11101FF070FD02461A4F45
:105C70007078CACF8DE8CA0000F00F0020F0030151
:105C800080075DF80110C00EC14005F804B0641C27
:105C90002A55641C2955641C05F8049011E0B85D70
:105CA00080081FF053FDB95D28558A070B49D20EB5
:105CB000D140641C2955641C05F80490641C05F847
:105CC0000490641C0A202855B8F1000F01D0C8F8D0
:105CD00000A000207EE7000080150E084151677784
:105CE00030BCBDE8C09F00002DE9FF5F07460026DD
:105CF000884608004FF0010A06D0A8F101000321F0
:105D0000B0FBF1F08000001D401C2EF089FB050067
:105D100001D0002435E0002655F0F0F904007CD0D5
:105D20004BA1F92388E0B85D80081FF0E5FC0190E5
:105D3000B85D07EB06098007810E99F8010041EA7A
:105D400010101FF0D9FC834699F801000007810E5E
:105D500099F8020041EA90101FF0CEFC009099F8EB
:105D6000020000F03F001FF0C7FC01992955641C98
:105D700005F804B0641C00992955641C2855641C5E
:105D8000F61CA8EB06000328CDD2A8EB06004FF0C6
:105D90003D08022802D0012827D03AE0B85D8008EB
:105DA0001FF0AAFC8146B85D3E4480077178800EE2
:105DB00040EA11101FF0A0FC014670782D4F00F052
:105DC0000F02C9CF8DE8C90022F0030092075DF8E9
:105DD0000000D20ED04005F80490641C2955641CC4
:105DE0002855641C05F8048012E0B85D80081FF097
:105DF00083FC0146B85D295582071F48D20ED0406A
:105E0000641C2855641C05F80480641C05F8048093
:105E1000641C00202855284600E014E016F0FEFF20
:105E2000060010D128462AF0AFF955F067F90400B2
:105E300009D012A14FF49B730E4ACDE900A1243280
:105E40001B490020A04704B0304600F033B80000E2
:105E50004261736536345F456E636F64653A3A201C
:105E6000416C6C6F636174696F6E206661696C650B
:105E7000642E0000A4D80D08415167774261736514
:105E800036345F456E636F64653A3A20416C6C6FDF
:105E9000636174696F6E206661696C656420666F0A
:105EA000722072657475726E2076616C75652E0055
:105EB0000C720E0830BCBDE8C09F2DE9FF470E46AE
:105EC0008046002500E06D1C6946705D1FF053FCA4
:105ED000401CF8D100273C4633E0F05D03A91FF0D9
:105EE0004AFC06EB070902A999F801001FF043FCE0
:105EF00099F8020069461FF03EFC99F8030001A9D9
:105F00001FF039FC9DF80C009DF80810800040EA55
:105F1000111008F804009DF808009DF80010000119
:105F2000641C40EA910108F804109DF800009DF8F7
:105F30000410641C41EA801108F80410641C2D1F31
:105F40003F1D042DC9D2022D23D0032D1FD1F05D9A
:105F500001A91FF010FCF519694668781FF00BFCC9
:105F6000A87802A91FF007FC9DF804009DF8001016
:105F7000800040EA111008F804009DF800009DF828
:105F80000810000140EA9101641C08F8041000F0B8
:105F900011B8F05D69461FF0EEFBF01901A94078D9
:105FA0001FF0E9FB9DF800009DF80410800040EA16
:105FB0001111EAE70FBCBDE8F087000070B50E468E
:105FC0000546202A00D32022144624220A49FBF742
:105FD00024F900230CE0E01A3044990710F8010C72
:105FE000C90E884023F003016A58104368505B1CB7
:105FF000A342F0D370BD0000C0150E0810B51F22DB
:10600000D31702EB937323F003046358141BE400CB
:10601000E34000F8013B521EF2D510BDFEE7000040
:1060200010B509F077FD084802780021012A02D94D
:106030000170022010BD0278012A01D0002010BD9D
:106040000170012010BD0000AC29002070B504468D
:106050000AF02AF806190D4C00252078012805D9E8
:10606000642009F057FD2570022070BD20780128BA
:1060700005D00AF019F8B042EFD3002070BD6420BB
:1060800009F048FD2570012070BD0000AC290020FA
:10609000F0B5B7B00F46044616460125442126A8A0
:1060A000FBF7E3F88DF89840422239460DF199004C
:1060B000FBF7B3F8164C26AB432228211548A662FD
:1060C00004F083FF00BB134B124A80338421B4F9E0
:1060D0000400FDF72BFDB8B9542111A8FBF7C5F852
:1060E0000C4811AB54221021803004F044FF50B909
:1060F000A46A44B1442215A96846FBF78EF811AD95
:1061000095E80F00A047002537B02846F0BD0000F5
:1061100054320020AA9D012000EBC00000EB400299
:10612000054800EB82000279012A01D00120704766
:106130004181002070470000AC9E012070B50446EC
:1061400000EBC40000EB40011048012500EB810288
:106150001079C8B1012813D0022802D0032813D126
:106160000EE018210A4804F01FFF68B90948084BDF
:10617000074A80337D21B0F90400FDF7D7FC18B938
:1061800020464CF071F80025284670BDAC9E0120D9
:10619000AA9D01205432002070B505464CF028F825
:1061A00004001CD105EBC50000EB40010E4800EBDC
:1061B00081052A461821A0F5817004F0F5FE68B922
:1061C000B5F8580050B9084B0848823BA3F180024B
:1061D0007921B0F90400FDF7A9FC10B10124204693
:1061E00070BD02202871FAE7AC9E012054320020D5
:1061F000F8B5114B4FF0FF35002400BF04EBC40687
:1062000006EB460603EB860636792EB1641CE4B233
:10621000062CF3D32846F8BD631CFBD000920A4637
:106220000146002320464CF007F800282046F2D013
:106230004CF01AF8EEE70000AC9E01202DE9F04189
:10624000002498B0064640F2DC50671E154688468A
:106250001694824232D806EBC6001B4900EB400080
:1062600001EB80000079022828D158216846FAF70E
:10627000FCFF58216846FAF7F8FFCDE90064CDF835
:106280000880CDE903458DF814406B46582219214A
:106290000E4804F09AFE88B90D480C4B0B4A803327
:1062A0007B21B0F90400FDF741FC38B9074816AB73
:1062B00004221A21803004F05EFE18B1384618B06E
:1062C000BDE8F0811698FAE7AC9E0120AA9D012056
:1062D000543200202DE9F047AAB00546DDE932A985
:1062E00040F2DC501E46144688464FF0FF3782428B
:1062F00033D805EBC500244900EB400001EB8000DA
:106300000079022829D1582112A8FAF7AEFF5821A6
:1063100012A8FAF7AAFF0020CDE91250CDF850805C
:10632000CDE915048DF85C0012AB582219211748ED
:1063300004F04BFE88B91648144B144A80337C2174
:10634000B0F90400FDF7F2FB38B910486B4648225B
:106350001B21803004F00FFE18B138462AB0BDE88A
:10636000F0879DF80400009D30706C46601DFAF7C0
:10637000AFFF0246611D5046FAF74FFFBDF84610C9
:10638000A9F800102846E9E7AC9E0120AA9D01204B
:1063900054320020F0B50646012540F2DC5097B09B
:1063A00014460F46824209D806EBC600154900EB99
:1063B000400001EB80000079022802D0012017B0D4
:1063C000F0BD58216846FAF750FF0020CDE90204DD
:1063D000CDE900678DF8140004946B46582219210A
:1063E000094804F0F2FD50B90848074B064A8033CB
:1063F0007A21B0F90400FDF799FB00B90025284681
:10640000DDE70000AC9E0120AA9D0120543200204F
:106410002DE9F04796B00646DDE91E7A012540F2E7
:10642000DC50994614468846824209D806EBC600DD
:106430001B4900EB400001EB80000079022803D0EB
:10644000012016B0BDE8F08758216846FAF70DFF25
:106450000020CDE90204CDE9006804948DF8149081
:106460003846FAF735FF024639460DF11500FAF7BE
:10647000D4FEADF856A06B4658221921094804F005
:10648000A4FD50B90848074B064A80337A21B0F979
:106490000400FDF74BFB00B900252846D1E70000BA
:1064A000AC9E0120AA9D01205432002000EBC000C8
:1064B00000EB4002064800EB820002792AB1016637
:1064C00019B183660BB100207047012070470000AE
:1064D000AC9E012038B50546012404F029FD2A2888
